{
  "contractName": "Aluno",
  "abi": [
    {
      "constant": true,
      "inputs": [
        {
          "name": "",
          "type": "address"
        }
      ],
      "name": "editores",
      "outputs": [
        {
          "name": "",
          "type": "bool"
        }
      ],
      "payable": false,
      "stateMutability": "view",
      "type": "function"
    },
    {
      "constant": true,
      "inputs": [
        {
          "name": "",
          "type": "uint256"
        }
      ],
      "name": "alunos",
      "outputs": [
        {
          "name": "id",
          "type": "uint256"
        },
        {
          "name": "nome",
          "type": "string"
        },
        {
          "name": "matricula",
          "type": "string"
        },
        {
          "name": "nota",
          "type": "string"
        },
        {
          "name": "situacao",
          "type": "string"
        }
      ],
      "payable": false,
      "stateMutability": "view",
      "type": "function"
    },
    {
      "constant": true,
      "inputs": [],
      "name": "contAlunos",
      "outputs": [
        {
          "name": "",
          "type": "uint256"
        }
      ],
      "payable": false,
      "stateMutability": "view",
      "type": "function"
    },
    {
      "inputs": [],
      "payable": false,
      "stateMutability": "nonpayable",
      "type": "constructor"
    },
    {
      "anonymous": false,
      "inputs": [
        {
          "indexed": true,
          "name": "_id",
          "type": "uint256"
        }
      ],
      "name": "eventoEditar",
      "type": "event"
    },
    {
      "constant": false,
      "inputs": [
        {
          "name": "_id",
          "type": "uint256"
        },
        {
          "name": "_nome",
          "type": "string"
        },
        {
          "name": "_matricula",
          "type": "string"
        },
        {
          "name": "_nota",
          "type": "string"
        },
        {
          "name": "_situacao",
          "type": "string"
        }
      ],
      "name": "editar",
      "outputs": [],
      "payable": false,
      "stateMutability": "nonpayable",
      "type": "function"
    }
  ],
  "bytecode": "0x608060405234801561001057600080fd5b506101006040805190810160405280600581526020017f4a6fc3a36f0000000000000000000000000000000000000000000000000000008152506040805190810160405280600881526020017f31313531353731300000000000000000000000000000000000000000000000008152506040805190810160405280600281526020017f36320000000000000000000000000000000000000000000000000000000000008152506040805190810160405280600981526020017f526570726f7661646f00000000000000000000000000000000000000000000008152506101f4640100000000026401000000009004565b6101ef6040805190810160405280600581526020017f4d617269610000000000000000000000000000000000000000000000000000008152506040805190810160405280600881526020017f31313131313131310000000000000000000000000000000000000000000000008152506040805190810160405280600281526020017f38360000000000000000000000000000000000000000000000000000000000008152506040805190810160405280600881526020017f4170726f7661646f0000000000000000000000000000000000000000000000008152506101f4640100000000026401000000009004565b610371565b60026000815480929190600101919050555060a06040519081016040528060025481526020018581526020018481526020018381526020018281525060016000600254815260200190815260200160002060008201518160000155602082015181600101908051906020019061026b9291906102cc565b5060408201518160020190805190602001906102889291906102cc565b5060608201518160030190805190602001906102a59291906102cc565b5060808201518160040190805190602001906102c29291906102cc565b5090505050505050565b828054600181600116156101000203166002900490600052602060002090601f016020900481019282601f1061030d57805160ff191683800117855561033b565b8280016001018555821561033b579182015b8281111561033a57825182559160200191906001019061031f565b5b509050610348919061034c565b5090565b61036e91905b8082111561036a576000816000905550600101610352565b5090565b90565b6108e7806103806000396000f300608060405260043610610062576000357c0100000000000000000000000000000000000000000000000000000000900463ffffffff1680630e2d814b1461006757806315ade960146100c25780634951d9831461020757806354c9878d146103f8575b600080fd5b34801561007357600080fd5b506100a8600480360381019080803573ffffffffffffffffffffffffffffffffffffffff169060200190929190505050610423565b604051808215151515815260200191505060405180910390f35b3480156100ce57600080fd5b5061020560048036038101908080359060200190929190803590602001908201803590602001908080601f0160208091040260200160405190810160405280939291908181526020018383808284378201915050505050509192919290803590602001908201803590602001908080601f0160208091040260200160405190810160405280939291908181526020018383808284378201915050505050509192919290803590602001908201803590602001908080601f0160208091040260200160405190810160405280939291908181526020018383808284378201915050505050509192919290803590602001908201803590602001908080601f0160208091040260200160405190810160405280939291908181526020018383808284378201915050505050509192919290505050610443565b005b34801561021357600080fd5b506102326004803603810190808035906020019092919050505061057a565b6040518086815260200180602001806020018060200180602001858103855289818151815260200191508051906020019080838360005b83811015610284578082015181840152602081019050610269565b50505050905090810190601f1680156102b15780820380516001836020036101000a031916815260200191505b50858103845288818151815260200191508051906020019080838360005b838110156102ea5780820151818401526020810190506102cf565b50505050905090810190601f1680156103175780820380516001836020036101000a031916815260200191505b50858103835287818151815260200191508051906020019080838360005b83811015610350578082015181840152602081019050610335565b50505050905090810190601f16801561037d5780820380516001836020036101000a031916815260200191505b50858103825286818151815260200191508051906020019080838360005b838110156103b657808201518184015260208101905061039b565b50505050905090810190601f1680156103e35780820380516001836020036101000a031916815260200191505b50995050505050505050505060405180910390f35b34801561040457600080fd5b5061040d610810565b6040518082815260200191505060405180910390f35b60006020528060005260406000206000915054906101000a900460ff1681565b60016000803373ffffffffffffffffffffffffffffffffffffffff1673ffffffffffffffffffffffffffffffffffffffff16815260200190815260200160002060006101000a81548160ff021916908315150217905550836001600087815260200190815260200160002060010190805190602001906104c4929190610816565b50826001600087815260200190815260200160002060020190805190602001906104ef929190610816565b508160016000878152602001908152602001600020600301908051906020019061051a929190610816565b5080600160008781526020019081526020016000206004019080519060200190610545929190610816565b50847f4a2d3e90de870e0d77f7ec536a1edb04cfaca7bcb6c5223f82b3feb3b8f8ade660405160405180910390a25050505050565b6001602052806000526040600020600091509050806000015490806001018054600181600116156101000203166002900480601f01602080910402602001604051908101604052809291908181526020018280546001816001161561010002031660029004801561062c5780601f106106015761010080835404028352916020019161062c565b820191906000526020600020905b81548152906001019060200180831161060f57829003601f168201915b505050505090806002018054600181600116156101000203166002900480601f0160208091040260200160405190810160405280929190818152602001828054600181600116156101000203166002900480156106ca5780601f1061069f576101008083540402835291602001916106ca565b820191906000526020600020905b8154815290600101906020018083116106ad57829003601f168201915b505050505090806003018054600181600116156101000203166002900480601f0160208091040260200160405190810160405280929190818152602001828054600181600116156101000203166002900480156107685780601f1061073d57610100808354040283529160200191610768565b820191906000526020600020905b81548152906001019060200180831161074b57829003601f168201915b505050505090806004018054600181600116156101000203166002900480601f0160208091040260200160405190810160405280929190818152602001828054600181600116156101000203166002900480156108065780601f106107db57610100808354040283529160200191610806565b820191906000526020600020905b8154815290600101906020018083116107e957829003601f168201915b5050505050905085565b60025481565b828054600181600116156101000203166002900490600052602060002090601f016020900481019282601f1061085757805160ff1916838001178555610885565b82800160010185558215610885579182015b82811115610884578251825591602001919060010190610869565b5b5090506108929190610896565b5090565b6108b891905b808211156108b457600081600090555060010161089c565b5090565b905600a165627a7a723058207dac63f23af8ee869748869ec681faa83f1cfce69740e999e1c3313692e959510029",
  "source": "pragma solidity ^0.4.24;\n\ncontract Aluno {\n    // modelo do aluno\n    struct aluno {\n        uint id;\n        string nome;\n        string matricula;\n        string nota;\n        string situacao;\n    }\n\n    mapping(address => bool) public editores;\n\n    // buscar alunos\n    mapping(uint => aluno) public alunos;\n\n    // contagem de alunos\n    uint public contAlunos;\n\n    event eventoEditar (\n        uint indexed _id\n    );\n\n    constructor () public {\n        addAluno(\"Jo達o\", \"11515710\", \"62\", \"Reprovado\");\n        addAluno(\"Maria\", \"11111111\", \"86\", \"Aprovado\");\n    }\n\n    function addAluno (string _nome, string _matricula, string _nota, string _situacao) private {\n        contAlunos++;\n        alunos[contAlunos] = aluno(contAlunos, _nome, _matricula, _nota, _situacao);\n    }\n\n    function editar (uint _id, string _nome, string _matricula, string _nota, string _situacao) public {\n        editores[msg.sender] = true;\n\n        alunos[_id].nome = _nome;\n        alunos[_id].matricula = _matricula;\n        alunos[_id].nota = _nota;\n        alunos[_id].situacao = _situacao;\n\n        // trigger voted event\n        emit eventoEditar(_id);\n    }\n}",
  "sourcePath": "/home/jonas/Desktop/aluno/contracts/Aluno.sol",
  "compiler": {
    "name": "solc",
    "version": "0.4.24+commit.e67f0147.Emscripten.clang"
  },
  "schemaVersion": "2.0.1",
  "updatedAt": "2018-10-06T17:21:05.461Z"
}