{
  "contractName": "Aluno",
  "abi": [
    {
      "constant": true,
      "inputs": [
        {
          "name": "",
          "type": "address"
        }
      ],
      "name": "editores",
      "outputs": [
        {
          "name": "",
          "type": "bool"
        }
      ],
      "payable": false,
      "stateMutability": "view",
      "type": "function"
    },
    {
      "constant": true,
      "inputs": [
        {
          "name": "",
          "type": "uint256"
        }
      ],
      "name": "alunos",
      "outputs": [
        {
          "name": "id",
          "type": "uint256"
        },
        {
          "name": "nome",
          "type": "string"
        },
        {
          "name": "matricula",
          "type": "string"
        },
        {
          "name": "nota",
          "type": "string"
        },
        {
          "name": "situacao",
          "type": "string"
        }
      ],
      "payable": false,
      "stateMutability": "view",
      "type": "function"
    },
    {
      "constant": true,
      "inputs": [],
      "name": "contAlunos",
      "outputs": [
        {
          "name": "",
          "type": "uint256"
        }
      ],
      "payable": false,
      "stateMutability": "view",
      "type": "function"
    },
    {
      "inputs": [],
      "payable": false,
      "stateMutability": "nonpayable",
      "type": "constructor"
    },
    {
      "anonymous": false,
      "inputs": [
        {
          "indexed": true,
          "name": "_id",
          "type": "uint256"
        }
      ],
      "name": "eventoEditar",
      "type": "event"
    },
    {
      "constant": false,
      "inputs": [
        {
          "name": "_nome",
          "type": "string"
        },
        {
          "name": "_matricula",
          "type": "string"
        },
        {
          "name": "_nota",
          "type": "string"
        },
        {
          "name": "_situacao",
          "type": "string"
        }
      ],
      "name": "addAluno",
      "outputs": [],
      "payable": false,
      "stateMutability": "nonpayable",
      "type": "function"
    },
    {
      "constant": false,
      "inputs": [
        {
          "name": "_id",
          "type": "uint256"
        },
        {
          "name": "_nome",
          "type": "string"
        },
        {
          "name": "_matricula",
          "type": "string"
        },
        {
          "name": "_nota",
          "type": "string"
        },
        {
          "name": "_situacao",
          "type": "string"
        }
      ],
      "name": "editar",
      "outputs": [],
      "payable": false,
      "stateMutability": "nonpayable",
      "type": "function"
    }
  ],
  "bytecode": "0x60806040523480156200001157600080fd5b50620001036040805190810160405280600581526020017f4a6fc3a36f0000000000000000000000000000000000000000000000000000008152506040805190810160405280600881526020017f31313531353731300000000000000000000000000000000000000000000000008152506040805190810160405280600281526020017f36320000000000000000000000000000000000000000000000000000000000008152506040805190810160405280600981526020017f526570726f7661646f0000000000000000000000000000000000000000000000815250620001fa640100000000026401000000009004565b620001f46040805190810160405280600581526020017f4d617269610000000000000000000000000000000000000000000000000000008152506040805190810160405280600881526020017f31313131313131310000000000000000000000000000000000000000000000008152506040805190810160405280600281526020017f38360000000000000000000000000000000000000000000000000000000000008152506040805190810160405280600881526020017f4170726f7661646f000000000000000000000000000000000000000000000000815250620001fa640100000000026401000000009004565b62000389565b60026000815480929190600101919050555060a06040519081016040528060025481526020018581526020018481526020018381526020018281525060016000600254815260200190815260200160002060008201518160000155602082015181600101908051906020019062000273929190620002da565b50604082015181600201908051906020019062000292929190620002da565b506060820151816003019080519060200190620002b1929190620002da565b506080820151816004019080519060200190620002d0929190620002da565b5090505050505050565b828054600181600116156101000203166002900490600052602060002090601f016020900481019282601f106200031d57805160ff19168380011785556200034e565b828001600101855582156200034e579182015b828111156200034d57825182559160200191906001019062000330565b5b5090506200035d919062000361565b5090565b6200038691905b808211156200038257600081600090555060010162000368565b5090565b90565b610b8580620003996000396000f30060806040526004361061006d576000357c0100000000000000000000000000000000000000000000000000000000900463ffffffff1680630e2d814b1461007257806315ade960146100cd5780633ca997c9146102125780634951d9831461034d57806354c9878d1461053e575b600080fd5b34801561007e57600080fd5b506100b3600480360381019080803573ffffffffffffffffffffffffffffffffffffffff169060200190929190505050610569565b604051808215151515815260200191505060405180910390f35b3480156100d957600080fd5b5061021060048036038101908080359060200190929190803590602001908201803590602001908080601f0160208091040260200160405190810160405280939291908181526020018383808284378201915050505050509192919290803590602001908201803590602001908080601f0160208091040260200160405190810160405280939291908181526020018383808284378201915050505050509192919290803590602001908201803590602001908080601f0160208091040260200160405190810160405280939291908181526020018383808284378201915050505050509192919290803590602001908201803590602001908080601f0160208091040260200160405190810160405280939291908181526020018383808284378201915050505050509192919290505050610589565b005b34801561021e57600080fd5b5061034b600480360381019080803590602001908201803590602001908080601f0160208091040260200160405190810160405280939291908181526020018383808284378201915050505050509192919290803590602001908201803590602001908080601f0160208091040260200160405190810160405280939291908181526020018383808284378201915050505050509192919290803590602001908201803590602001908080601f0160208091040260200160405190810160405280939291908181526020018383808284378201915050505050509192919290803590602001908201803590602001908080601f01602080910402602001604051908101604052809392919081815260200183838082843782019150505050505091929192905050506106c0565b005b34801561035957600080fd5b5061037860048036038101908080359060200190929190505050610798565b6040518086815260200180602001806020018060200180602001858103855289818151815260200191508051906020019080838360005b838110156103ca5780820151818401526020810190506103af565b50505050905090810190601f1680156103f75780820380516001836020036101000a031916815260200191505b50858103845288818151815260200191508051906020019080838360005b83811015610430578082015181840152602081019050610415565b50505050905090810190601f16801561045d5780820380516001836020036101000a031916815260200191505b50858103835287818151815260200191508051906020019080838360005b8381101561049657808201518184015260208101905061047b565b50505050905090810190601f1680156104c35780820380516001836020036101000a031916815260200191505b50858103825286818151815260200191508051906020019080838360005b838110156104fc5780820151818401526020810190506104e1565b50505050905090810190601f1680156105295780820380516001836020036101000a031916815260200191505b50995050505050505050505060405180910390f35b34801561054a57600080fd5b50610553610a2e565b6040518082815260200191505060405180910390f35b60006020528060005260406000206000915054906101000a900460ff1681565b60016000803373ffffffffffffffffffffffffffffffffffffffff1673ffffffffffffffffffffffffffffffffffffffff16815260200190815260200160002060006101000a81548160ff0219169083151502179055508360016000878152602001908152602001600020600101908051906020019061060a929190610a34565b5082600160008781526020019081526020016000206002019080519060200190610635929190610a34565b5081600160008781526020019081526020016000206003019080519060200190610660929190610a34565b508060016000878152602001908152602001600020600401908051906020019061068b929190610a34565b50847f4a2d3e90de870e0d77f7ec536a1edb04cfaca7bcb6c5223f82b3feb3b8f8ade660405160405180910390a25050505050565b60026000815480929190600101919050555060a060405190810160405280600254815260200185815260200184815260200183815260200182815250600160006002548152602001908152602001600020600082015181600001556020820151816001019080519060200190610737929190610ab4565b506040820151816002019080519060200190610754929190610ab4565b506060820151816003019080519060200190610771929190610ab4565b50608082015181600401908051906020019061078e929190610ab4565b5090505050505050565b6001602052806000526040600020600091509050806000015490806001018054600181600116156101000203166002900480601f01602080910402602001604051908101604052809291908181526020018280546001816001161561010002031660029004801561084a5780601f1061081f5761010080835404028352916020019161084a565b820191906000526020600020905b81548152906001019060200180831161082d57829003601f168201915b505050505090806002018054600181600116156101000203166002900480601f0160208091040260200160405190810160405280929190818152602001828054600181600116156101000203166002900480156108e85780601f106108bd576101008083540402835291602001916108e8565b820191906000526020600020905b8154815290600101906020018083116108cb57829003601f168201915b505050505090806003018054600181600116156101000203166002900480601f0160208091040260200160405190810160405280929190818152602001828054600181600116156101000203166002900480156109865780601f1061095b57610100808354040283529160200191610986565b820191906000526020600020905b81548152906001019060200180831161096957829003601f168201915b505050505090806004018054600181600116156101000203166002900480601f016020809104026020016040519081016040528092919081815260200182805460018160011615610100020316600290048015610a245780601f106109f957610100808354040283529160200191610a24565b820191906000526020600020905b815481529060010190602001808311610a0757829003601f168201915b5050505050905085565b60025481565b828054600181600116156101000203166002900490600052602060002090601f016020900481019282601f10610a7557805160ff1916838001178555610aa3565b82800160010185558215610aa3579182015b82811115610aa2578251825591602001919060010190610a87565b5b509050610ab09190610b34565b5090565b828054600181600116156101000203166002900490600052602060002090601f016020900481019282601f10610af557805160ff1916838001178555610b23565b82800160010185558215610b23579182015b82811115610b22578251825591602001919060010190610b07565b5b509050610b309190610b34565b5090565b610b5691905b80821115610b52576000816000905550600101610b3a565b5090565b905600a165627a7a723058203b02072c6e07756e0f7803922089c9a8b48ec1982d5e0aaab7555d5cb5cd65bf0029",
  "source": "pragma solidity ^0.4.24;\r\n\r\ncontract Aluno {\r\n    // modelo do aluno\r\n    struct aluno {\r\n        uint id;\r\n        string nome;\r\n        string matricula;\r\n        string nota;\r\n        string situacao;\r\n    }\r\n\r\n    mapping(address => bool) public editores;\r\n\r\n    // buscar alunos\r\n    mapping(uint => aluno) public alunos;\r\n\r\n    // contagem de alunos\r\n    uint public contAlunos;\r\n\r\n    event eventoEditar (\r\n        uint indexed _id\r\n    );\r\n\r\n    constructor () public {\r\n        addAluno(\"Jo達o\", \"11515710\", \"62\", \"Reprovado\");\r\n        addAluno(\"Maria\", \"11111111\", \"86\", \"Aprovado\");\r\n    }\r\n\r\n    function addAluno (string _nome, string _matricula, string _nota, string _situacao) public {\r\n        contAlunos++;\r\n        alunos[contAlunos] = aluno(contAlunos, _nome, _matricula, _nota, _situacao);\r\n    }\r\n\r\n    function editar (uint _id, string _nome, string _matricula, string _nota, string _situacao) public {\r\n        editores[msg.sender] = true;\r\n\r\n        alunos[_id].nome = _nome;\r\n        alunos[_id].matricula = _matricula;\r\n        alunos[_id].nota = _nota;\r\n        alunos[_id].situacao = _situacao;\r\n\r\n        // trigger voted event\r\n        emit eventoEditar(_id);\r\n    }\r\n}",
  "sourcePath": "C:\\Users\\Jonas\\Desktop\\tcc-blockchain\\contracts\\Aluno.sol",
  "compiler": {
    "name": "solc",
    "version": "0.4.24+commit.e67f0147.Emscripten.clang"
  },
  "schemaVersion": "2.0.1",
  "updatedAt": "2018-11-25T16:38:32.929Z"
}