{
  "contractName": "Aluno",
  "abi": [
    {
      "constant": true,
      "inputs": [
        {
          "name": "",
          "type": "uint256"
        }
      ],
      "name": "alunos",
      "outputs": [
        {
          "name": "id",
          "type": "uint256"
        },
        {
          "name": "nome",
          "type": "string"
        },
        {
          "name": "matricula",
          "type": "string"
        },
        {
          "name": "nota",
          "type": "string"
        }
      ],
      "payable": false,
      "stateMutability": "view",
      "type": "function"
    },
    {
      "constant": true,
      "inputs": [],
      "name": "contAlunos",
      "outputs": [
        {
          "name": "",
          "type": "uint256"
        }
      ],
      "payable": false,
      "stateMutability": "view",
      "type": "function"
    },
    {
      "inputs": [],
      "payable": false,
      "stateMutability": "nonpayable",
      "type": "constructor"
    }
  ],
  "bytecode": "0x608060405234801561001057600080fd5b506100ca6040805190810160405280600581526020017f4a6f6e61730000000000000000000000000000000000000000000000000000008152506040805190810160405280600881526020017f31313531353731300000000000000000000000000000000000000000000000008152506040805190810160405280600281526020017f3835000000000000000000000000000000000000000000000000000000000000815250610188640100000000026401000000009004565b6101836040805190810160405280600481526020017f4875676f000000000000000000000000000000000000000000000000000000008152506040805190810160405280600881526020017f31313131313131310000000000000000000000000000000000000000000000008152506040805190810160405280600381526020017f3130300000000000000000000000000000000000000000000000000000000000815250610188640100000000026401000000009004565b6102e0565b60016000815480929190600101919050555060806040519081016040528060015481526020018481526020018381526020018281525060008060015481526020019081526020016000206000820151816000015560208201518160010190805190602001906101f892919061023b565b50604082015181600201908051906020019061021592919061023b565b50606082015181600301908051906020019061023292919061023b565b50905050505050565b828054600181600116156101000203166002900490600052602060002090601f016020900481019282601f1061027c57805160ff19168380011785556102aa565b828001600101855582156102aa579182015b828111156102a957825182559160200191906001019061028e565b5b5090506102b791906102bb565b5090565b6102dd91905b808211156102d95760008160009055506001016102c1565b5090565b90565b61042b806102ef6000396000f30060806040526004361061004c576000357c0100000000000000000000000000000000000000000000000000000000900463ffffffff1680634951d9831461005157806354c9878d146101d6575b600080fd5b34801561005d57600080fd5b5061007c60048036038101908080359060200190929190505050610201565b60405180858152602001806020018060200180602001848103845287818151815260200191508051906020019080838360005b838110156100ca5780820151818401526020810190506100af565b50505050905090810190601f1680156100f75780820380516001836020036101000a031916815260200191505b50848103835286818151815260200191508051906020019080838360005b83811015610130578082015181840152602081019050610115565b50505050905090810190601f16801561015d5780820380516001836020036101000a031916815260200191505b50848103825285818151815260200191508051906020019080838360005b8381101561019657808201518184015260208101905061017b565b50505050905090810190601f1680156101c35780820380516001836020036101000a031916815260200191505b5097505050505050505060405180910390f35b3480156101e257600080fd5b506101eb6103f9565b6040518082815260200191505060405180910390f35b6000602052806000526040600020600091509050806000015490806001018054600181600116156101000203166002900480601f0160208091040260200160405190810160405280929190818152602001828054600181600116156101000203166002900480156102b35780601f10610288576101008083540402835291602001916102b3565b820191906000526020600020905b81548152906001019060200180831161029657829003601f168201915b505050505090806002018054600181600116156101000203166002900480601f0160208091040260200160405190810160405280929190818152602001828054600181600116156101000203166002900480156103515780601f1061032657610100808354040283529160200191610351565b820191906000526020600020905b81548152906001019060200180831161033457829003601f168201915b505050505090806003018054600181600116156101000203166002900480601f0160208091040260200160405190810160405280929190818152602001828054600181600116156101000203166002900480156103ef5780601f106103c4576101008083540402835291602001916103ef565b820191906000526020600020905b8154815290600101906020018083116103d257829003601f168201915b5050505050905084565b600154815600a165627a7a723058201648bb9eb2eea1be8729d69869aacad0420b333f6b7d2d40c286015f52c9f28f0029",
  "source": "pragma solidity ^0.4.24;\n\ncontract Aluno {\n    // modelo do aluno\n    struct aluno {\n        uint id;\n        string nome;\n        string matricula;\n        string nota;\n    }\n\n    // buscar alunos\n    mapping(uint => aluno) public alunos;\n\n    // contagem de alunos\n    uint public contAlunos;\n\n    constructor () public {\n        addAluno(\"Jonas\", \"11515710\", \"85\");\n        addAluno(\"Hugo\", \"11111111\", \"100\");\n    }\n\n    function addAluno (string _nome, string _matricula, string _nota) private {\n        contAlunos++;\n        alunos[contAlunos] = aluno(contAlunos, _nome, _matricula, _nota);\n    }\n}",
  "sourcePath": "/home/jonas/Desktop/aluno/contracts/Aluno.sol",
  "compiler": {
    "name": "solc",
    "version": "0.4.24+commit.e67f0147.Emscripten.clang"
  },
  "schemaVersion": "2.0.1",
  "updatedAt": "2018-09-14T20:21:11.162Z"
}