{
  "contractName": "Aluno",
  "abi": [
    {
      "constant": true,
      "inputs": [
        {
          "name": "",
          "type": "uint256"
        }
      ],
      "name": "alunos",
      "outputs": [
        {
          "name": "id",
          "type": "uint256"
        },
        {
          "name": "nome",
          "type": "string"
        },
        {
          "name": "matricula",
          "type": "string"
        },
        {
          "name": "nota",
          "type": "string"
        },
        {
          "name": "situacao",
          "type": "string"
        }
      ],
      "payable": false,
      "stateMutability": "view",
      "type": "function"
    },
    {
      "constant": true,
      "inputs": [],
      "name": "contAlunos",
      "outputs": [
        {
          "name": "",
          "type": "uint256"
        }
      ],
      "payable": false,
      "stateMutability": "view",
      "type": "function"
    },
    {
      "inputs": [],
      "payable": false,
      "stateMutability": "nonpayable",
      "type": "constructor"
    }
  ],
  "bytecode": "0x608060405234801561001057600080fd5b506101006040805190810160405280600581526020017f4a6fc3a36f0000000000000000000000000000000000000000000000000000008152506040805190810160405280600881526020017f31313531353731300000000000000000000000000000000000000000000000008152506040805190810160405280600281526020017f36320000000000000000000000000000000000000000000000000000000000008152506040805190810160405280600981526020017f526570726f7661646f00000000000000000000000000000000000000000000008152506101f4640100000000026401000000009004565b6101ef6040805190810160405280600581526020017f4d617269610000000000000000000000000000000000000000000000000000008152506040805190810160405280600881526020017f31313131313131310000000000000000000000000000000000000000000000008152506040805190810160405280600281526020017f38360000000000000000000000000000000000000000000000000000000000008152506040805190810160405280600881526020017f4170726f7661646f0000000000000000000000000000000000000000000000008152506101f4640100000000026401000000009004565b610370565b60016000815480929190600101919050555060a060405190810160405280600154815260200185815260200184815260200183815260200182815250600080600154815260200190815260200160002060008201518160000155602082015181600101908051906020019061026a9291906102cb565b5060408201518160020190805190602001906102879291906102cb565b5060608201518160030190805190602001906102a49291906102cb565b5060808201518160040190805190602001906102c19291906102cb565b5090505050505050565b828054600181600116156101000203166002900490600052602060002090601f016020900481019282601f1061030c57805160ff191683800117855561033a565b8280016001018555821561033a579182015b8281111561033957825182559160200191906001019061031e565b5b509050610347919061034b565b5090565b61036d91905b80821115610369576000816000905550600101610351565b5090565b90565b6105358061037f6000396000f30060806040526004361061004c576000357c0100000000000000000000000000000000000000000000000000000000900463ffffffff1680634951d9831461005157806354c9878d14610242575b600080fd5b34801561005d57600080fd5b5061007c6004803603810190808035906020019092919050505061026d565b6040518086815260200180602001806020018060200180602001858103855289818151815260200191508051906020019080838360005b838110156100ce5780820151818401526020810190506100b3565b50505050905090810190601f1680156100fb5780820380516001836020036101000a031916815260200191505b50858103845288818151815260200191508051906020019080838360005b83811015610134578082015181840152602081019050610119565b50505050905090810190601f1680156101615780820380516001836020036101000a031916815260200191505b50858103835287818151815260200191508051906020019080838360005b8381101561019a57808201518184015260208101905061017f565b50505050905090810190601f1680156101c75780820380516001836020036101000a031916815260200191505b50858103825286818151815260200191508051906020019080838360005b838110156102005780820151818401526020810190506101e5565b50505050905090810190601f16801561022d5780820380516001836020036101000a031916815260200191505b50995050505050505050505060405180910390f35b34801561024e57600080fd5b50610257610503565b6040518082815260200191505060405180910390f35b6000602052806000526040600020600091509050806000015490806001018054600181600116156101000203166002900480601f01602080910402602001604051908101604052809291908181526020018280546001816001161561010002031660029004801561031f5780601f106102f45761010080835404028352916020019161031f565b820191906000526020600020905b81548152906001019060200180831161030257829003601f168201915b505050505090806002018054600181600116156101000203166002900480601f0160208091040260200160405190810160405280929190818152602001828054600181600116156101000203166002900480156103bd5780601f10610392576101008083540402835291602001916103bd565b820191906000526020600020905b8154815290600101906020018083116103a057829003601f168201915b505050505090806003018054600181600116156101000203166002900480601f01602080910402602001604051908101604052809291908181526020018280546001816001161561010002031660029004801561045b5780601f106104305761010080835404028352916020019161045b565b820191906000526020600020905b81548152906001019060200180831161043e57829003601f168201915b505050505090806004018054600181600116156101000203166002900480601f0160208091040260200160405190810160405280929190818152602001828054600181600116156101000203166002900480156104f95780601f106104ce576101008083540402835291602001916104f9565b820191906000526020600020905b8154815290600101906020018083116104dc57829003601f168201915b5050505050905085565b600154815600a165627a7a723058202b2fe9a8a961ff159214f1408a4d02ee9d8b4f6df80d8dba5a71ffbcef7ee2830029",
  "source": "pragma solidity ^0.4.24;\n\ncontract Aluno {\n    // modelo do aluno\n    struct aluno {\n        uint id;\n        string nome;\n        string matricula;\n        string nota;\n        string situacao;\n    }\n\n    // buscar alunos\n    mapping(uint => aluno) public alunos;\n\n    // contagem de alunos\n    uint public contAlunos;\n\n    constructor () public {\n        addAluno(\"Jo達o\", \"11515710\", \"62\", \"Reprovado\");\n        addAluno(\"Maria\", \"11111111\", \"86\", \"Aprovado\");\n    }\n\n    function addAluno (string _nome, string _matricula, string _nota, string _situacao) private {\n        contAlunos++;\n        alunos[contAlunos] = aluno(contAlunos, _nome, _matricula, _nota, _situacao);\n    }\n}",
  "sourcePath": "/home/jonas/Desktop/aluno/contracts/Aluno.sol",
  "compiler": {
    "name": "solc",
    "version": "0.4.24+commit.e67f0147.Emscripten.clang"
  },
  "schemaVersion": "2.0.1",
  "updatedAt": "2018-09-23T23:40:46.730Z"
}